:020000020000FC
:080000000C9434000C9475000F
:040010000C946400E8
:10006800579A41E0F8940FEF0DBF08E00EBF529881
:1000780033E03093690031E03DBB3D9832E0309386
:10008800680032E030936C00789430E5413019F024
:100098005F980C944A005F9A232F05D05F98232F0E
:1000A80002D00C944A00FF92FFB60F938DED9BE0AF
:1000B8000196F1F72A95D1F70F91FFBEFF900895A9
:1000C800303519F438E20C947400383219F434E1FC
:1000D8000C947400343119F43AE00C94740030E54F
:0600E800189541951895E2
:00000001FF
