:020000020000FC
:10000000F8940FEF0DBF08E00EBF42D0AAE091E0D8
:1000100084E10FD0AAE091E080E01ED087E28093D7
:100020002801AAE091E080E025D08093290100001A
:10003000FECFF92FE82F31E011912081339512176F
:1000400042F039F0EA950AF4FA95219310830C9462
:1000500019003A1789F7089520E030E0F92FE82FCA
:100060001191121708F0212F33953A17C9F79927E4
:10007000822F08952FEF30E0F92FE82F11912117EB
:1000800008F0212F33953A17C9F79927822F089541
:10009000F0E0E3E6B1E0A0E08894EE1FFF1F0AE085
:1000A00015911D930A95E1F70000F0E0E3E6B1E059
:1000B000A4E18894EE1FFF1F0AE015911D930A9595
:1000C000E1F7000008950304070102030209080094
:0200D00000002E
:00000001FF
